:100000000C94E8000C9405010C9405010C94050176
:100010000C9405010C9405010C9405010C94050148
:100020000C9405010C9434050C9405010C94050105
:100030000C9405010C9405010C9405010C94050128
:100040000C9405010C9405010C9405010C94050118
:100050000C94050108000000BE922449123EABAA90
:10006000AA2ABECDCCCC4C3E00000080BEABAAAAD2
:10007000AA3E00000000BF000000803F000000001A
:1000800000084178D3BB4387D1133D190E3CC3BD53
:100090004282AD2B3E68EC8276BED98FE1A93E4C00
:1000A00080EFFFBE01C4FF7F3F0000000000076338
:1000B0004236B79BD8A71A39685618AEBAAB558CDA
:1000C0001D3CB7CC5763BD6DEDFD753EF617723123
:1000D000BF000000803F00407A10F35A00A0724E2B
:1000E00018090010A5D4E80000E87648170000E4DD
:1000F0000B54020000CA9A3B000000E1F505000025
:1001000080969800000040420F000000A086010089
:100110000000102700000000E80300000000640059
:10012000000000000A0000000000010000000000C4
:100130002C76D888DC674F0823DFC1DFAE59E1B1E8
:10014000B796E5E3E453C63AE651997696E8E6C2F7
:100150008426EB898C9B62ED407C6FFCEFBC9C9FFE
:1001600040F2BAA56FA5F490055A2AF75C936B6C20
:10017000F9676DC11BFCE0E40D47FEF520E6B50014
:10018000D0ED902E0300943577050080841E080082
:1001900000204E0A000000C80C333333330F986E32
:1001A00012831141EF8D2114893BE65516CFFEE6EF
:1001B000DB18D1844B381BF77C1D901DA4BBE424B5
:1001C000203284725E228100C9F124ECA1E53D2732
:1001D00011241FBECFE5D8E0DEBFCDBF10E0A0E602
:1001E000B0E0E0E7F7E102C005900D92A03DB10755
:1001F000D9F721E0A0EDB0E001C01D92A330B20715
:10020000E1F70E945A040C94B60B0C94000041E0F4
:1002100060E081E00E94280341E061E081E00E940B
:10022000280340E060E081E00E949B0340E061E041
:1002300081E00E949B030895CF93C62F813069F41B
:1002400040E060E00E949B0341E061E081E00E94A9
:100250009B038C2F0E9432041FC0823071F441E056
:1002600060E081E00E949B0340E061E081E00E9449
:100270009B038C2F0E9432040FC081110DC040E0FF
:1002800060E081E00E949B0340E061E081E00E9429
:100290009B038C2F0E943204CF910895CF93C82FD7
:1002A00040E067E080E00E949B0389EF90E00197C7
:1002B000F1F700C0000041E066E080E00E949B038F
:1002C00089EF90E00197F1F700C000006C2F83E008
:1002D0000E94200489EF90E00197F1F700C0000030
:1002E00040E066E080E00E949B0389EF90E0019788
:1002F000F1F700C00000CF91089541E067E080E091
:100300000E94280341E066E080E00E94280387E81D
:1003100093E10197F1F700C000006FEF83E00E94C6
:100320000E0488E30E944E018CE00E944E0181E0A1
:100330000E944E010895CF93C82F41E067E080E00E
:100340000E949B0389EF90E00197F1F700C0000045
:1003500041E066E080E00E949B0389EF90E0019716
:10036000F1F700C000006C2F83E00E94200489EFA9
:1003700090E00197F1F700C0000040E066E080E007
:100380000E949B0389EF90E00197F1F700C0000005
:10039000CF9108950F931F93CF938C01C0E003C0BA
:1003A0000E949B01CF5FF801EC0FF11D808181114C
:1003B000F7CFCF911F910F910895813031F070F0F8
:1003C000823031F0833039F00AC090E4960F07C0D4
:1003D00094E1960F04C094E5960F01C0962F892FE3
:1003E00080680E944E010895CF93DF93EA010E9436
:1003F000DD01CE010E94CA01DF91CF910895CF9314
:10040000DF93CDB7DEB760970FB6F894DEBF0FBEAF
:10041000CDBF4AE050E0BE016F5F7F4F0E940D09E3
:10042000CE0101960E94CA0160960FB6F894DEBF15
:100430000FBECDBFDF91CF91089581E00E944E01A4
:10044000089582E00E9416039C01A6E9B0E00E9494
:10045000DE080E945E062AE037ED43E250E40E9487
:100460003C0720E030ED4FEB54E40E94BD050E94B4
:100470002F06862F0895CF92DF92EF92FF92CF93AF
:10048000DF93EC016FEF73E0681B790B80E090E085
:100490000E945E0620E030E040E251E40E943C070A
:1004A0006B017C01BE0180E090E00E945E069B0132
:1004B000AC01C701B6010E94BD05DF91CF91FF904D
:1004C000EF90DF90CF900895CF92DF92EF92FF925E
:1004D000CF93C12CD12C7601C0E014C080E00E94E3
:1004E00016030E943B029B01AC01C701B6010E94AA
:1004F00051056B017C018FE493EC0197F1F700C08B
:100500000000CF5FCF3050F320E030E040E751E40F
:10051000C701B6010E94BD052EEA37E44DE151E462
:100520000E94BD05CF91FF90EF90DF90CF9008958E
:10053000CF92DF92EF92FF92CF93C12CD12C760114
:10054000C0E014C080E00E9416030E943B029B01A1
:10055000AC01C701B6010E9451056B017C0183ED1E
:1005600090E30197F1F700C00000CF5FC53050F372
:1005700020E030E040EA50E4C701B6010E94BD052A
:10058000CF91FF90EF90DF90CF900895CF93DF93BE
:10059000EA010E94F4062C813D814E815F810E9418
:1005A0005005288539854A855B850E94BD052881CF
:1005B00039814A815B810E9451050E942F0670E0BB
:1005C00080E090E00E945E069B01AC0160E070E07C
:1005D00080E291E40E94A9070E942F06CB01DF91DF
:1005E000CF9108954115510529F44CE650E00E9441
:1005F000C60208954130510529F440E650E00E94BA
:10060000C602089580E090E00895FC0117B887B114
:10061000908140E4949F90011124282B27B980E811
:1006200086B996B18181892B86B90895877097B173
:10063000907E97B997B1892B87B986B1806486B9C6
:10064000349BFECF86B1806186B984B195B108959F
:10065000683008F06FC0843008F06CC0813001F160
:1006600030F08230B1F1833009F44CC0089541304C
:1006700059F42AB381E090E002C0880F991F6A956F
:10068000E2F7822B8ABB08952AB381E090E002C092
:10069000880F991F6A95E2F7809582238ABB089597
:1006A000413059F427B381E090E002C0880F991FD0
:1006B0006A95E2F7822B87BB089527B381E090E02B
:1006C00002C0880F991F6A95E2F78095822387BB45
:1006D0000895413059F424B381E090E002C0880FBE
:1006E000991F6A95E2F7822B84BB089524B381E0B9
:1006F00090E002C0880F991F6A95E2F780958223E7
:1007000084BB0895413059F421B381E090E002C0E8
:10071000880F991F6A95E2F7822B81BB089521B358
:1007200081E090E002C0880F991F6A95E2F78095FA
:10073000822381BB0895683008F06FC0843008F0D0
:100740006CC0813001F130F08230B1F1833009F4B6
:100750004CC00895413059F42BB381E090E002C0C1
:10076000880F991F6A95E2F7822B8BBB08952BB3F4
:1007700081E090E002C0880F991F6A95E2F78095AA
:1007800082238BBB0895413059F428B381E090E077
:1007900002C0880F991F6A95E2F7822B88BB0895E3
:1007A00028B381E090E002C0880F991F6A95E2F7B4
:1007B0008095822388BB0895413059F425B381E0A8
:1007C00090E002C0880F991F6A95E2F7822B85BBE3
:1007D000089525B381E090E002C0880F991F6A95C3
:1007E000E2F78095822385BB0895413059F422B306
:1007F00081E090E002C0880F991F6A95E2F7822B92
:1008000082BB089522B381E090E002C0880F991F57
:100810006A95E2F78095822382BB0895843078F44C
:10082000813041F028F0823039F0833039F008957A
:100830006ABB089567BB089564BB089561BB0895C2
:10084000843078F4813041F028F0823039F0833000
:1008500039F008956BBB089568BB089565BB089592
:1008600062BB089512BE682F70E080E090E00E94A5
:100870005E0620E030E048EC52E40E94BD0520E036
:1008800030E04FE753E40E943C070E942F066CBF04
:100890008AE683BF41E063E081E00E942803089577
:1008A0001FBC8EB581608EBD89B7846089BF1DBCB9
:1008B0001CBC0895CF92DF92EF92FF920F931F938B
:1008C000CF93DF9300D0CDB7DEB71DBC1CBC0E9418
:1008D000500483E089838A838FB780688FBF0E942A
:1008E00007010E947D01CE0101960E9405030E942E
:1008F00064026B017C0101EF10E022E046E00E94FF
:10090000ED082FE38DE093E0215080409040E1F727
:1009100000C000000E941D0248E750E060E081E056
:100920000E94F40144E850E060E082E00E94F4019B
:1009300045E950E060E083E00E94F40110E011110D
:1009400009C060E080E00E94DD0186EA90E00E943C
:10095000CA0113C0113049F460E080E00E94DD015B
:1009600081EB90E00E94CA0108C060E080E00E9434
:10097000DD0180EC90E00E94CA010E942102809378
:10098000F0000E949802A70196010E94BD0540E078
:1009900050E00E94F2024AE060EE70E00E94180906
:1009A0000E949802A70196010E94BD0541E050E017
:1009B0000E94F2024AE060ED70E00E94180965E0D2
:1009C00082E00E94DD0180EE90E00E94CA0167E0B3
:1009D00083E00E94DD0180ED90E00E94CA0180EE7C
:1009E00090E0803D974080F580ED90E08039914027
:1009F00058F58091F0008E3130F062E381E00E9482
:100A00001C0111E005C060E080E00E941C0110E0C4
:100A100067E081E00E94DD018091F000843620F0E3
:100A200090E00E94FF0106C090E00E94FF0180E27A
:100A30000E949B018FE39DE023E081509040204085
:100A4000E1F700C000007BCF62E382E00E941C015E
:100A500080E00F900F90DF91CF911F910F91FF9049
:100A6000EF90DF90CF9008951F920F920FB60F92E4
:100A700011248F939F931DBC1CBC80910101909108
:100A800002010196909302018093010188B784606E
:100A900088BF9F918F910F900FBE0F901F90189558
:100AA0005058BB27AA270E9468050C94B2060E94E2
:100AB000A40638F00E94AB0620F039F49F3F19F4E9
:100AC00026F40C94A1060EF4E095E7FB0C949B062B
:100AD000E92F0E94C30658F3BA1762077307840709
:100AE000950720F079F4A6F50C94E5060EF4E09550
:100AF0000B2EBA2FA02D0B01B90190010C01CA01D8
:100B0000A0011124FF27591B99F0593F50F4503E82
:100B100068F11A16F040A22F232F342F4427585F74
:100B2000F3CF469537952795A795F0405395C9F78C
:100B30007EF41F16BA0B620B730B840BBAF0915044
:100B4000A1F0FF0FBB1F661F771F881FC2F70EC0E3
:100B5000BA0F621F731F841F48F4879577956795B6
:100B6000B795F7959E3F08F0B0CF9395880F08F0A2
:100B70009927EE0F9795879508950E94D1050C94BB
:100B8000B2060E94AB0658F00E94A40640F029F479
:100B90005F3F29F00C949B0651110C94E6060C94CF
:100BA000A1060E94C30668F39923B1F3552391F37C
:100BB000951B550BBB27AA2762177307840738F0CC
:100BC0009F5F5F4F220F331F441FAA1FA9F335D029
:100BD0000E2E3AF0E0E832D091505040E695001CDD
:100BE000CAF72BD0FE2F29D0660F771F881FBB1F97
:100BF000261737074807AB07B0E809F0BB0B802D75
:100C0000BF01FF2793585F4F3AF09E3F510578F0A0
:100C10000C949B060C94E6065F3FE4F3983ED4F3F5
:100C2000869577956795B795F7959F5FC9F7880F74
:100C3000911D9695879597F90895E1E0660F771FC6
:100C4000881FBB1F621773078407BA0720F0621B57
:100C5000730B840BBA0BEE1F88F7E09508950E9482
:100C6000CB0688F09F5798F0B92F9927B751B0F06D
:100C7000E1F0660F771F881F991F1AF0BA95C9F720
:100C800014C0B13091F00E94E506B1E008950C94D3
:100C9000E506672F782F8827B85F39F0B93FCCF386
:100CA000869577956795B395D9F73EF4909580959D
:100CB000709561957F4F8F4F9F4F0895E89409C0BD
:100CC00097FB3EF490958095709561957F4F8F4F7F
:100CD0009F4F9923A9F0F92F96E9BB279395F69595
:100CE000879577956795B795F111F8CFFAF4BB0F13
:100CF00011F460FF1BC06F5F7F4F8F4F9F4F16C077
:100D0000882311F096E911C0772321F09EE8872F00
:100D1000762F05C0662371F096E8862F70E060E0BC
:100D20002AF09A95660F771F881FDAF7880F969535
:100D3000879597F9089597F99F6780E870E060E0DC
:100D400008959FEF80EC089500240A941616170664
:100D500018060906089500240A94121613061406AC
:100D600005060895092E0394000C11F4882352F00F
:100D7000BB0F40F4BF2B11F460FF04C06F5F7F4FC7
:100D80008F4F9F4F089557FD9058440F551F59F0AE
:100D90005F3F71F04795880F97FB991F61F09F3F68
:100DA00079F087950895121613061406551FF2CF91
:100DB0004695F1DF08C0161617061806991FF1CFE1
:100DC00086957105610508940895E894BB27662708
:100DD0007727CB0197F9089516F00C9433080C94FB
:100DE000A10668940C949B060E94CB06A8F3992355
:100DF000C1F3AEF3DF93CF931F930F93FF92C92FED
:100E0000DD2788232AF02197660F771F881FDAF7DE
:100E100020E030E040E85FEB9FE3883920F0803E3F
:100E200038F021968F770E945105E4E5F0E004C088
:100E30000E945105E1E8F0E00E9441088B01BE01EB
:100E4000EC01FB2E6F5771097595771F880B990B75
:100E50000E94600628E132E741E35FE30E944F070A
:100E6000AF2D9801AE01FF900F911F91CF91DF91AF
:100E70000E9468050C94B2060E944F070C94B206BB
:100E80000E94A40638F00E94AB0620F0952311F0D2
:100E90000C949B060C94A10611240C94E6060E9467
:100EA000C30670F3959FC1F3950F50E0551F629FE5
:100EB000F001729FBB27F00DB11D639FAA27F00DB3
:100EC000B11DAA1F649F6627B00DA11D661F829FDA
:100ED0002227B00DA11D621F739FB00DA11D621FBF
:100EE000839FA00D611D221F749F3327A00D611DDC
:100EF000231F849F600D211D822F762F6A2F1124BE
:100F00009F5750409AF0F1F088234AF0EE0FFF1FF0
:100F1000BB1F661F771F881F91505040A9F79E3F47
:100F2000510580F00C949B060C94E6065F3FE4F3B9
:100F3000983ED4F3869577956795B795F795E7959D
:100F40009F5FC1F7FE2B880F911D9695879597F9A6
:100F50000895FA01EE0FFF1F309621053105A1F12A
:100F60006115710561F48038BFE39B0749F168940E
:100F70009038810561F08038BFEF9B0741F09923DD
:100F80004AF5FF3FE1053105210519F1E894089480
:100F9000E795D901AA2329F4AB2FBE2FF85FD0F330
:100FA00010C0FF5F70F4A695E0F7F73950F019F024
:100FB000FF3A38F49F779F930DD00F9007FC90581D
:100FC000089546F00C94A10660E070E080E89FE38D
:100FD00008954FE79F775F934F933F932F930E941E
:100FE000F4062F913F914F915F910E943C070C9422
:100FF000010829F416F00C949B060C94E5060C9459
:10100000A1060E94CB06A8F39638A0F707F80F9226
:10101000E8942BE33AEA48EB5FE70E9452070F920D
:101020000F920F924DB75EB70F920E94AA08EEEA98
:10103000F0E00E9441084F915F91EF91FF91E5959B
:10104000EE1FFF1F49F0FE57E0684427EE0F441FD4
:10105000FA95E1F74195550B0E9474080F9007FE31
:101060000C94680808959F3F31F0915020F48795C3
:1010700077956795B795880F911D9695879597F900
:101080000895DF93CF931F930F93FF92EF92DF9218
:101090007B018C01689406C0DA2EEF010E944F0795
:1010A000FE01E894A5912591359145915591A6F3BE
:1010B000EF010E946805FE019701A801DA9469F723
:1010C000DF90EF90FF900F911F91CF91DF910895E6
:1010D0009B01AC0160E070E080E89FE30C94BD05EB
:1010E0000C949B060C9433080E94CB06D8F39923EA
:1010F000C9F3940F511DA3F39150504094F059F04F
:10110000882332F0660F771F881F91505040C1F737
:101110009E3F51052CF7880F911D9695879597F95D
:1011200008955F3FACF0983E9CF0BB27869577957D
:101130006795B79508F4B1609395C1F7BB0F58F761
:1011400011F460FFE8CF6F5F7F4F8F4F9F4FE3CF6A
:101150000C94E606FA01DC01AA0FBB1F9B01AC014F
:10116000BF5728F4222733274427507820C0B7518F
:1011700090F4AB2F0024469537952795011CA39535
:10118000D2F3002071F0220F331F441FB395DAF31E
:101190000ED00C94500561307105A0E88A07B9465D
:1011A00030F49B01AC01662777278827907830962A
:1011B00021F020833183428353830895A29FB0019D
:1011C000B39FC001A39F700D811D1124911DB29F7B
:1011D000700D811D1124911D0895EF920F931F939F
:1011E000CF93DF93E80147FD02C034E001C034E152
:1011F000042E000C550B57FF03C051954195510922
:10120000E32E022F242FAE010E943D09CE01DF9173
:10121000CF911F910F91EF9008954532510520F421
:10122000423010F00C941809FB011082CB01089594
:10123000BB274A3031F4992322F4BDE29095819581
:101240009F4F0C942409BB27FB015527AA27880F21
:10125000991FAA1FA41710F0A41B83955051B9F72A
:10126000A05DAA3308F0A95DA193009779F7B111A9
:10127000B1931192CB010C946F0BA9E0B0E0E3E4C1
:10128000F9E00C94850B6A01122FB02E2BE3201786
:1012900020F0FF24F394F00E02C02CE3F22E0F2D69
:1012A00027E0AE014F5F5F4F0E94970ABC01498162
:1012B000842F8970813031F0E1FC06C0E0FE06C069
:1012C00090E205C09DE203C09BE201C090E05E2D6C
:1012D000507143FF3CC0911102C083E001C084E023
:1012E000811718F4212F281B01C020E051110BC0D9
:1012F000F601822F30E2882319F031938150FBCF21
:10130000C20ED11C20E0992329F0D6019C93F6014E
:1013100031966F01C6010396E2FE0AC03EE4D60193
:101320003C9341E411964C93119712963C9306C05E
:101330003EE6F601308341E641833283FC01322FE1
:1013400040E2332309F442C041933150FACF42FFC7
:1013500044C0911102C083E001C084E0811718F4F9
:10136000212F281B01C020E051110BC0F601822F54
:1013700030E2882319F031938150FBCFC20ED11C8B
:1013800020E0992329F0D6019C93F60131966F0154
:10139000C6010396E2FE0BC039E4D6013C933EE45D
:1013A00011963C93119736E412963C9307C039E6A8
:1013B000F60130833EE6318336E63283FC01322F7C
:1013C00040E2332319F041933150FBCFFC01E20F8F
:1013D000F11D10828EEF9FEFA6C021E030E0911149
:1013E00002C020E030E0161617061CF4FB0131960F
:1013F00002C0E1E0F0E02E0F3F1FBB2021F0EB2DFB
:10140000F0E0319602C0E0E0F0E02E0F3F1FE12F48
:10141000F0E02E173F071CF4121B212F01C020E023
:101420008E2D887159F4F601822F30E2882319F04D
:1014300031938150FBCFC20ED11C20E0992329F0BB
:10144000D6019C93F60131966F0151110BC0F60144
:10145000822F90E3882319F091938150FBCFC20E25
:10146000D11C20E00F2D060F9A81342F307144FFDC
:1014700003C0913309F40150101624F4093018F018
:1014800008E001C001E0AB0177FF02C040E050E09E
:10149000FB01E41BF50BA1E0B0E0AC0FBD1FEA0FB0
:1014A000FB1F8EE2A82E4B01801A91080B2D10E035
:1014B0001195019511094F3FBFEF5B0721F4D6014C
:1014C000AC9211966D01641775072CF08416950681
:1014D00014F4818101C080E3415051093196D60155
:1014E00011967D014017510724F0D6018C936701B6
:1014F000E2CF6417750739F4963320F4953319F465
:10150000311101C081E3F6018083F701822F90E25F
:10151000882319F091938150FBCFF701E20FF11D61
:10152000108280E090E02996ECE00C94A10B28302A
:1015300008F027E03327DA01990F311D87FD91600C
:1015400000966105710539F432602E5F3D9330E3FA
:101550002A95E1F708959F3F30F0803871056105C5
:1015600009F03C5F3C5F3D93913008F08068911D2D
:10157000DF93CF931F930F93FF92EF92192F987FD2
:101580009695E92F96959695E90FFF27E05DFE4F1A
:1015900099273327EE24FF24A701E701059008943B
:1015A000079428F4360FE71EF81E491F511D660FD9
:1015B000771F881F991F0694A1F70590079428F4B8
:1015C000E70EF81E491F561FC11D770F881F991F70
:1015D000661F0694A1F70590079428F4F80E491F9A
:1015E000561FC71FD11D880F991F661F771F0694AE
:1015F000A1F70590079420F4490F561FC71FD81F65
:10160000990F661F771F881F0694A9F7849110957C
:10161000177041F0D695C79557954795F794E7947D
:101620001A95C1F7E6EDF0E06894159015913591A3
:101630006591959105907FE27395E118F10A430B4E
:10164000560BC90BD009C0F7E10CF11E431F561F02
:10165000C91FD01D7EF4703311F48A95E6CFE8944B
:10166000015030F0080F0AF40027021708F4202F69
:101670002395022F7A3328F079E37D932A95E9F7B1
:1016800010C07D932A9589F60694979567953795AE
:1016900017951794E118F10A430B560BC90BD009A3
:1016A00098F023957E9173957A3308F070E37C93DC
:1016B0002013B8F77E9170617D9330F0839571E3CC
:1016C0007D9370E32A95E1F71124EF90FF900F913D
:1016D0001F91CF91DF91992787FD90950895DC01A7
:1016E000FC01672F71917723E1F7329704C07C9159
:1016F0006D9370836291AE17BF07C8F308952F9260
:101700003F924F925F926F927F928F929F92AF9291
:10171000BF92CF92DF92EF92FF920F931F93CF93DE
:10172000DF93CDB7DEB7CA1BDB0B0FB6F894DEBF75
:101730000FBECDBF09942A88398848885F846E849B
:101740007D848C849B84AA84B984C884DF80EE80E5
:10175000FD800C811B81AA81B981CE0FD11D0FB6EE
:10176000F894DEBF0FBECDBFED010895F894FFCF12
:101770003333134014AE073FF628DCBE3333134037
:10178000CDCC4C3E1F85EBBE54656D70203D2020B6
:10179000202043004C50473A2020202020202020A9
:1017A0002070706D00534D4F4B453A202020202073
:1017B000202070706D0046414E206973204F4646D0
:1017C0000046414E206973204F4E20434C4B200071
:1017D00046414E206973204F4E2041434C4B200020
:00000001FF
