:100000000C94E8000C9405010C9405010C94050176
:100010000C9405010C9405010C9405010C94AF0798
:100020000C9405010C94EF040C9405010C9405014B
:100030000C9405010C9405010C9405010C94050128
:100040000C9405010C9405010C9405010C94050118
:100050000C94050108000000BE922449123EABAA90
:10006000AA2ABECDCCCC4C3E00000080BEABAAAAD2
:10007000AA3E00000000BF000000803F000000001A
:1000800000084178D3BB4387D1133D190E3CC3BD53
:100090004282AD2B3E68EC8276BED98FE1A93E4C00
:1000A00080EFFFBE01C4FF7F3F0000000000076338
:1000B0004236B79BD8A71A39685618AEBAAB558CDA
:1000C0001D3CB7CC5763BD6DEDFD753EF617723123
:1000D000BF000000803F00407A10F35A00A0724E2B
:1000E00018090010A5D4E80000E87648170000E4DD
:1000F0000B54020000CA9A3B000000E1F505000025
:1001000080969800000040420F000000A086010089
:100110000000102700000000E80300000000640059
:10012000000000000A0000000000010000000000C4
:100130002C76D888DC674F0823DFC1DFAE59E1B1E8
:10014000B796E5E3E453C63AE651997696E8E6C2F7
:100150008426EB898C9B62ED407C6FFCEFBC9C9FFE
:1001600040F2BAA56FA5F490055A2AF75C936B6C20
:10017000F9676DC11BFCE0E40D47FEF520E6B50014
:10018000D0ED902E0300943577050080841E080082
:1001900000204E0A000000C80C333333330F986E32
:1001A00012831141EF8D2114893BE65516CFFEE6EF
:1001B000DB18D1844B381BF77C1D901DA4BBE424B5
:1001C000203284725E228100C9F124ECA1E53D2732
:1001D00011241FBECFE5D8E0DEBFCDBF11E0A0E601
:1001E000B0E0EEE5F7E202C005900D92A630B1074F
:1001F000D9F727E0A6E0B1E001C01D92AC39B20703
:10020000E1F70E940F030C94AD130C94000041E041
:1002100060E081E00E942E0541E061E081E00E9403
:100220002E0540E060E081E00E94A10540E061E031
:1002300081E00E94A1050895CF93C62F813069F413
:1002400040E060E00E94A10541E061E081E00E94A1
:10025000A1058C2F0E9438061FC0823071F441E046
:1002600060E081E00E94A10540E061E081E00E9441
:10027000A1058C2F0E9438060FC081110DC040E0EF
:1002800060E081E00E94A10540E061E081E00E9421
:10029000A1058C2F0E943806CF910895CF93C82FC7
:1002A00040E067E081E00E94A10589EF90E00197BE
:1002B000F1F700C0000041E066E081E00E94A10586
:1002C00089EF90E00197F1F700C000006C2F83E008
:1002D0000E94260689EF90E00197F1F700C0000028
:1002E00040E066E081E00E94A10589EF90E001977F
:1002F000F1F700C00000CF91089541E067E081E090
:100300000E942E0541E066E081E00E942E0587E80C
:1003100093E10197F1F700C000006FEF83E00E94C6
:10032000140688E30E944E018CE00E944E0181E099
:100330000E944E010895CF93C82F41E067E081E00D
:100340000E94A10589EF90E00197F1F700C000003D
:1003500041E066E081E00E94A10589EF90E001970D
:10036000F1F700C000006C2F83E00E94260689EFA1
:1003700090E00197F1F700C0000040E066E081E006
:100380000E94A10589EF90E00197F1F700C00000FD
:10039000CF9108950F931F93CF938C01C0E003C0BA
:1003A0000E949B01CF5FF801EC0FF11D808181114C
:1003B000F7CFCF911F910F910895813031F070F0F8
:1003C000823031F0833039F00AC090E4960F07C0D4
:1003D00094E1960F04C094E5960F01C0962F892FE3
:1003E00080680E944E010895CF93DF93EA010E9436
:1003F000DD01CE010E94CA01DF91CF910895CF9314
:10040000DF93CDB7DEB760970FB6F894DEBF0FBEAF
:10041000CDBF4AE050E0BE016F5F7F4F0E940411E4
:10042000CE0101960E94CA0160960FB6F894DEBF15
:100430000FBECDBFDF91CF91089581E00E944E01A4
:10044000089582E00E941C059C01A6E9B0E00E948C
:10045000CE100E944E0E2AE037ED43E250E40E9497
:100460002C0F20E030ED4FEB54E40E94AD0D0E94C4
:100470001F0E862F0895CF92DF92EF92FF92CF93B7
:10048000DF93EC016FEF73E0681B790B80E090E085
:100490000E944E0E20E030E040E251E40E942C0F1A
:1004A0006B017C01BE0180E090E00E944E0E9B013A
:1004B000AC01C701B6010E94AD0DDF91CF91FF9055
:1004C000EF90DF90CF900895CF92DF92EF92FF925E
:1004D000CF93C12CD12C7601C0E014C080E00E94E3
:1004E0001C050E943B029B01AC01C701B6010E94A2
:1004F000410D6B017C018FE493EC0197F1F700C093
:100500000000CF5FCF3050F320E030E040E751E40F
:10051000C701B6010E94AD0D2EEA37E44DE151E46A
:100520000E94AD0DCF91FF90EF90DF90CF90089596
:10053000CF92DF92EF92FF92CF93C12CD12C760114
:10054000C0E014C080E00E941C050E943B029B0199
:10055000AC01C701B6010E94410D6B017C0183ED26
:1005600090E30197F1F700C00000CF5FC53050F372
:1005700020E030E040EA50E4C701B6010E94AD0D32
:10058000CF91FF90EF90DF90CF900895CF93DF93BE
:10059000EA010E94E40E2C813D814E815F810E9420
:1005A000400D288539854A855B850E94AD0D2881DF
:1005B00039814A815B810E94410D0E941F0E70E0CB
:1005C00080E090E00E944E0E9B01AC0160E070E084
:1005D00080E291E40E94990F0E941F0ECB01DF91EF
:1005E000CF9108954115510529F44CE650E00E9441
:1005F000C60208954130510529F440E650E00E94BA
:10060000C602089580E090E008951FBC8EB5816019
:100610008EBD89B7846089BF1DBC1CBC0895EF9254
:10062000FF920F93CF93DF9300D0CDB7DEB7109238
:100630004101109240010E94050383E089838A836F
:100640000E947D010E940701CE0101960E940B05C8
:100650008FB780688FBF41E064E082E00E942E0582
:1006600041E065E082E00E942E0541E066E082E024
:100670000E942E0541E067E082E00E942E050F2EC9
:10068000FAE9EF2EF7E0FF2EF02D01E020E030E058
:1006900044E650E069E770E08DE893E00E94290BA2
:1006A0000F2EF4E9EF2EF7E0FF2EF02D03E020E00F
:1006B00030E044E650E062E870E08FE094E00E94B1
:1006C000290B0F2EF6E9EF2EF7E0FF2EF02D02E0BA
:1006D00020E030E044E650E06CE870E080E494E034
:1006E0000E94290B0F2EF8E9EF2EF7E0FF2EF02DD8
:1006F00004E020E030E044E650E06BE970E08DE893
:1007000094E00E94290B0E947D0B0F900F90DF91C7
:10071000CF910F91FF90EF90089541E064E082E067
:100720000E94A1050E941D020E94AF0B9093370109
:100730008093360110924101109240010E940503FE
:1007400080910601811108C060E00E94DD0184EA09
:1007500090E00E94CA0113C0813049F460E080E05B
:100760000E94DD018FEA90E00E94CA0108C060E0AB
:1007700080E00E94DD0180EC90E00E94CA0160E010
:1007800081E00E94DD0182ED90E00E94CA0167E0F5
:1007900081E00E94DD0180912701843620F090E005
:1007A0000E94FF0106C090E00E94FF0180E20E94CB
:1007B0009B014EED50E060E082E00E94F40165E0B4
:1007C00082E00E94DD0187E191E00E94CA014FEEC4
:1007D00050E060E083E00E94F40167E083E00E9463
:1007E000DD0187E091E00E94CA0140E064E082E020
:1007F0000E94A1050E94AF0B9093350180933401B4
:100800002091360130913701821B930B90933F0169
:1008100080933E0181E290E00E94D60C85CF0E9439
:10082000AF0B9093330180933201109241011092EB
:1008300040010E94050341E065E082E00E94A105BD
:10084000109227010E9421028093270140E065E079
:1008500082E00E94A1050E94AF0B9093310180932A
:1008600030012091320130913301821B930B909320
:100870003D0180933C0180E190E00E94D60CCFCFF7
:100880000E94AF0B90932F0180932E011092410193
:10089000109240010E94050341E066E082E00E9460
:1008A000A10587E191E0803D974028F487E091E041
:1008B0008039914038F082E08093060162E30E9423
:1008C0001C010895809127018E3138F081E08093DA
:1008D000060162E30E941C0106C01092060160E05E
:1008E00080E00E941C0140E066E082E00E94A105D9
:1008F0000E94AF0B90932D0180932C0120912E012B
:1009000030912F01821B930B90933B0180933A010E
:1009100085E390E00E94D60CB3CFCF93DF93CDB7A1
:10092000DEB760970FB6F894DEBF0FBECDBF109252
:100930004101109240010E9405030E94AF0B909369
:100940002B0180932A0141E067E082E00E94A1052B
:100950000E9464026B017C018E010F5F1F4F22E039
:1009600030E046E050E00E94DD100E949802A701AE
:1009700096010E94AD0D40E050E00E94F2024AE074
:1009800050E067E171E00E9404110E949802A70103
:1009900096010E94AD0D41E050E00E94F2024AE053
:1009A00050E067E071E00E94041140E067E082E0FF
:1009B0000E94A1050E94AF0B90932901809328010A
:1009C00020912A0130912B01821B930B90933901C6
:1009D0008093380189E290E00E94D60CC6CF1F9226
:1009E0000F920FB60F9211248F939F931DBC1CBCC6
:1009F0008091400190914101019690934101809333
:100A0000400188B7846088BF9F918F910F900FBE7F
:100A10000F901F901895FC0117B887B1908140E4A2
:100A2000949F90011124282B27B980E886B996B1AC
:100A30008181892B86B90895877097B1907E97B987
:100A400097B1892B87B986B1806486B9349BFECF74
:100A500086B1806186B984B195B10895683008F097
:100A60006FC0843008F06CC0813001F130F082300A
:100A7000B1F1833009F44CC00895413059F42AB3E0
:100A800081E090E002C0880F991F6A95E2F7822BFF
:100A90008ABB08952AB381E090E002C0880F991FB5
:100AA0006A95E2F7809582238ABB0895413059F414
:100AB00027B381E090E002C0880F991F6A95E2F7A2
:100AC000822B87BB089527B381E090E002C0880F96
:100AD000991F6A95E2F78095822387BB089541307C
:100AE00059F424B381E090E002C0880F991F6A9501
:100AF000E2F7822B84BB089524B381E090E002C02A
:100B0000880F991F6A95E2F78095822384BB089528
:100B1000413059F421B381E090E002C0880F991F61
:100B20006A95E2F7822B81BB089521B381E090E0C2
:100B300002C0880F991F6A95E2F78095822381BBD6
:100B40000895683008F06FC0843008F06CC08130C0
:100B500001F130F08230B1F1833009F44CC00895D6
:100B6000413059F42BB381E090E002C0880F991F07
:100B70006A95E2F7822B8BBB08952BB381E090E05E
:100B800002C0880F991F6A95E2F7809582238BBB7C
:100B90000895413059F428B381E090E002C0880FF5
:100BA000991F6A95E2F7822B88BB089528B381E0EC
:100BB00090E002C0880F991F6A95E2F78095822322
:100BC00088BB0895413059F425B381E090E002C01C
:100BD000880F991F6A95E2F7822B85BB089525B38C
:100BE00081E090E002C0880F991F6A95E2F7809536
:100BF000822385BB0895413059F422B381E090E00F
:100C000002C0880F991F6A95E2F7822B82BB089574
:100C100022B381E090E002C0880F991F6A95E2F745
:100C20008095822382BB0895843078F4813041F02E
:100C300028F0823039F0833039F008956ABB089586
:100C400067BB089564BB089561BB0895843078F450
:100C5000813041F028F0823039F0833039F0089546
:100C60006BBB089568BB089565BB089562BB08958A
:100C700012BE682F70E080E090E00E944E0E20E0EF
:100C800030E048EC52E40E94AD0D20E030E04FE748
:100C900053E40E942C0F0E941F0E6CBF8AE683BF94
:100CA00041E063E081E00E942E0508951BBC8EE0C8
:100CB0008ABD8BE08EBD89B7806189BF089531E11F
:100CC000FC013083319722E220833197A3E3A08394
:100CD000319760833197708331971082319760E844
:100CE000608331971082319762E06083319763E0CF
:100CF0006083319764E06083319765E0608331976A
:100D000066E06083319767E06083319768E06083D5
:100D1000319769E06083319760E160833197308378
:100D2000319732E13083319733E13083319734E1C9
:100D30003083319735E13083319736E13083319715
:100D400037E13083319738E13083319739E13083AF
:100D5000319730E23083319731E23083319720830D
:100D6000319723E220833197408331975083319725
:100D700026E22083319727E22083319728E22083DF
:100D8000319729E22083319720E32083319721E3B3
:100D90002083869708950E945606A0919207B091ED
:100DA0009307CD91CDBFDD91DEBFFF91EF91DF9134
:100DB000CF91BF91AF919F918F917F916F915F91F3
:100DC0004F913F912F911F910F91FF90EF90DF90E6
:100DD000CF90BF90AF909F908F907F906F905F90DB
:100DE0004F903F902F901F900F900FBE0F9008953F
:100DF00081E008950F920FB6F8940F921F9211247C
:100E00002F923F924F925F926F927F928F929F921A
:100E1000AF92BF92CF92DF92EF92FF920F931F9308
:100E20002F933F934F935F936F937F938F939F93F2
:100E3000AF93BF93CF93DF93EF93FF93A09192076C
:100E4000B09193070DB60D920EB60D920E94EC0C68
:100E5000A0919207B0919307CD91CDBFDD91DEBFF8
:100E6000FF91EF91DF91CF91BF91AF919F918F91C2
:100E70007F916F915F914F913F912F911F910F91B2
:100E8000FF90EF90DF90CF90BF90AF909F908F90AA
:100E90007F906F905F904F903F902F901F900F909A
:100EA0000FBE0F9008950F920FB6F8940F921F92F5
:100EB00011242F923F924F925F926F927F928F9266
:100EC0009F92AF92BF92CF92DF92EF92FF920F93D9
:100ED0001F932F933F934F935F936F937F938F93C2
:100EE0009F93AF93BF93CF93DF93EF93FF93A09123
:100EF0009207B09193070DB60D920EB60D920E9417
:100F0000B90B81110E94EC0CA0919207B09193074C
:100F1000CD91CDBFDD91DEBFFF91EF91DF91CF91FC
:100F2000BF91AF919F918F917F916F915F914F9101
:100F30003F912F911F910F91FF90EF90DF90CF90F5
:100F4000BF90AF909F908F907F906F905F904F90E9
:100F50003F902F901F900F900FBE0F9008950E940A
:100F600053071895FC010396928381832FEF3FEF7F
:100F700034832383968385839087878310820895A3
:100F8000FC01118610860895CF93DF939C01FB012D
:100F9000DC011196CD91DC911297D383C2838C81B1
:100FA0009D81958384838C819D81DC0113967C9344
:100FB0006E9312977D836C8331872087F90180813E
:100FC0008F5F8083DF91CF910895CF93DF93EB0103
:100FD000488159814F3F2FEF520721F4FC01A7812F
:100FE000B0850DC0DC01139601C0DF011296ED91B2
:100FF000FC9113972081318142175307B0F7129665
:10100000ED91FC911397FB83EA83D583C483BD8361
:10101000AC831396DC93CE93129799878887FC0153
:1010200020812F5F2083DF91CF910895CF93DF93AD
:10103000FC01A085B185C281D381848195819D8386
:101040008C83C481D581828193819B838A8311960D
:101050008D919C911297E817F90731F4848195815D
:1010600012969C938E931197118610868C918150C5
:101070008C938C91DF91CF910895EEE4F1E0A2E59D
:10108000B1E0B183A08313821282EAE2F7E0F09329
:101090004D01E0934C01138212821182108288ED7F
:1010A00095E013969C938E931297ED93FC939093F7
:1010B00049018093480190934B0180934A0180E05D
:1010C00090E890934301809342010895CF93DF937A
:1010D000EC01AEE4B1E001C0DF01ED91FC911197AC
:1010E000EC17FD07C8F312968D919C9113979D0103
:1010F000280F391FC217D30749F42A813B81820F79
:10110000931F13969C938E931297ED018A819B8176
:101110009E01280F391FE217F307C1F420914C01FB
:1011200030914D01E217F30771F022813381820F74
:10113000931F9B838A83ED91FC911197808191810C
:101140009983888305C03983288302C0F983E883A3
:10115000CA17DB0711F0CD93DC93DF91CF9108958F
:10116000EF92FF920F931F93CF93DF938C010E9416
:10117000A90B80914C0190914D01892B11F40E9493
:101180003D08809142019091430180239123892B56
:1011900009F077C00115110549F0C8010496081738
:1011A000190718F000E010E001C08C0101151105CD
:1011B00009F46AC080914A0190914B018017910710
:1011C00008F465C0C0914E01D0914F01EEE4F1E00A
:1011D00002C0FE01EC018A819B818017910720F4F7
:1011E000888199810097A9F780914C0190914D01D8
:1011F000C817D90709F44EC0E080F18084E0E80EFA
:10120000F11C88819981918380832A813B81201BF5
:10121000310B2930310550F0CE01800F911FFC01B8
:10122000338322831B830A830E9466082A813B81C1
:1012300080914A0190914B01821B930B90934B013B
:1012400080934A01409148015091490184179507C4
:1012500020F490934901809348018091420190913C
:101260004301282B392B3B832A83198218828091D2
:101270004601909147010196909347018093460162
:101280000BC0E12CF12C08C0E12CF12C05C0E12CA5
:10129000F12C02C0E12CF12C0E94600CC701DF91FF
:1012A000CF911F910F91FF90EF9008950F931F938F
:1012B000CF93DF93009799F1EC0124974A815B81EA
:1012C0002091420130914301BA0162237323672BBD
:1012D00031F168817981672B11F5209530952423B0
:1012E00035233B832A830E94A90B8A819B8120910D
:1012F0004A0130914B01820F931F90934B018093D1
:101300004A01CE010E9466088091440190914501F6
:10131000019690934501809344010E94600CDF91F7
:10132000CF911F910F910895E0915107F0915207CD
:101330008081811107C08FEF9FEF909332078093D8
:1013400031070895E0915107F09152070580F68129
:10135000E02D808191819093320780933107089529
:101360002F923F924F925F926F927F928F929F92B5
:10137000AF92BF92CF92DF92EF920F931F93CF93D2
:10138000DF93CDB7DEB71C014B0129013A01A9015A
:1013900065EA70E0D50157968D919C9158970E940F
:1013A000FD10F5018789908DF1E04F1A5108480E24
:1013B000591E8114910489F417C0822F90E0F40122
:1013C000E80FF91F3081D501A80FB91F59963C933A
:1013D0008081882329F02F5F01C020E02C3068F342
:1013E000D50194961C9202C0F501118EF4E0FE1511
:1013F00018F46894EE24E2F8D5015696EC92C501F3
:1014000002960E94C007C5010C960E94C007F50114
:10141000B186A08685E090E08E1991099587848732
:10142000B38AA28A84E0B796DF011D928A95E9F714
:10143000F50113A6A801B101C2010E945F06D50102
:101440008D939C93C114D10419F0F601B182A0824E
:10145000DF91CF911F910F91EF90DF90CF90BF90D0
:10146000AF909F908F907F906F905F904F903F9044
:101470002F900895809165078230E0F30E94FA066C
:10148000F9CFCF93C0E010C08C2F90E09C01220FC9
:10149000331F220F331F220F331F820F931F8B59CD
:1014A000984F0E94B207CF5FC53070F38CE597E08C
:1014B0000E94B20783E597E00E94B20786E497E0B6
:1014C0000E94B2078DE397E00E94B2078CE597E097
:1014D000909352078093510783E597E090935007CC
:1014E00080934F07CF910895CF93DF93EC010FB610
:1014F000F8940F9280913C078F5F80933C07809116
:10150000920790919307892B59F4D0939307C09336
:10151000920780913C07813099F40E94410A10C0E3
:101520008091380781110CC0E0919207F0919307E8
:1015300096898E89891720F0D0939307C0939207DC
:10154000809133078F5F809333078DA38E899091AD
:101550003907981710F48093390790E09C01220F07
:10156000331F220F331F220F331F820F931FBE0121
:101570006E5F7F4F8B59984F0E94C4070F900FBE2C
:1015800080913807882351F0E0919207F0919307FA
:1015900096898E89981710F40E94FA06DF91CF91F0
:1015A0000895FF920F931F93CF93DF93EC01F62ED4
:1015B00000913A0710913B07809192079091930711
:1015C00002960E941608CF3F8FEFD80769F4FF20DC
:1015D00059F060919207709193076E5F7F4F8DE392
:1015E00097E00E94C4072FC0C00FD11FE09192075F
:1015F000F0919307D383C283C017D10768F4609139
:1016000092077091930780914F07909150076E5FFA
:101610007F4F0E94E50717C0609192077091930772
:1016200080915107909152076E5F7F4F0E94E507AE
:101630008091310790913207C817D90720F4D093D1
:101640003207C0933107DF91CF911F910F91FF9027
:1016500008952F923F924F925F926F927F928F9256
:101660009F92AF92BF92CF92DF92EF92FF920F9331
:101670001F93CF93DF933C011B015A012901CA013B
:101680000E94B0086C01892B71F08CE290E00E94FE
:10169000B008EC01892B19F0D88ECF8A06C0C6019C
:1016A0000E94560902C0C0E0D0E0209791F0950159
:1016B00040E050E0812C912C5E016701E02E820118
:1016C000B101C3010E94B009CE010E94740A81E0F9
:1016D00001C08FEFDF91CF911F910F91FF90EF909D
:1016E000DF90CF90BF90AF909F908F907F906F9042
:1016F0005F904F903F902F900895EF92FF920F933D
:101700000F2EFFE2EF2EF7E0FF2EF02D00E020E09D
:1017100030E045E550E060E071E08AE39AE00E9445
:10172000290B813081F4F8948FEF9FEF909332076B
:101730008093310781E08093380710923B07109225
:101740003A070E94CB06809178000F91FF90EF90AE
:10175000089580912E078F5F80932E0708950FB60E
:10176000F8940F9280913A0790913B070F900FBE2B
:101770000895DF92EF92FF920F931F93CF93DF9321
:1017800080912E07811186C0E0903A07F0903B07C8
:101790008FEFE81AF80AF0923B07E0923A07E1145B
:1017A000F104B9F4809151079091520720914F07AD
:1017B0003091500730935207209351079093500770
:1017C00080934F07809134078F5F809334070E9486
:1017D00094098091310790913207E816F90628F4B0
:1017E000D12C53C0DD24D39401C0D12CE0915107FA
:1017F000F09152078081811107C08FEF9FEF909386
:1018000032078093310741C0E0915107F0915207B0
:101810000580F681E02DC681D7818A819B81E816FB
:10182000F90628F490933207809331072EC08E0179
:101830000E5F1F4FC8010E9416088C899D89892B55
:1018400021F0CE010C960E9416088E8990913907DE
:10185000981710F48093390790E09C01220F331FF2
:10186000220F331F220F331F820F931FB8018B5992
:10187000984F0E94C4079E89E0919207F0919307C8
:101880008689981708F0AECFB1CF809135078111C6
:101890000CC00DC080913607909137070196909348
:1018A000370780933607D12C02C0DD24D3948D2DC9
:1018B000DF91CF911F910F91FF90EF90DF900895EE
:1018C0000F931F93CF93DF930FB6F8940F928091ED
:1018D0002E07815080932E0780912E0781115CC0C6
:1018E00080913C07811133C05AC0E0914B07F091C1
:1018F0004C07C681D781CE010C960E9416088E0136
:101900000E5F1F4FC8010E9416088E8990913907FB
:10191000981710F48093390790E09C01220F331F31
:10192000220F331F220F331F820F931FB8018B59D1
:10193000984F0E94C4079E89E0919207F091930707
:101940008689981730F081E08093350702C0C0E0A7
:10195000D0E0809146078111C8CFCD2B11F00E94B5
:101960009409C0913607D0913707209769F00E94FB
:10197000B90B882319F081E0809335072197B9F7D7
:10198000109237071092360780913507882331F07F
:101990000E94FA0681E003C080E001C080E00F9061
:1019A0000FBEDF91CF911F910F910895CF93DF93D9
:1019B000EC01892B49F00E94A90B60E0CE010E9446
:1019C000D10A0E94600C01C080E0811102C00E9417
:1019D000FA06DF91CF91089580912E07882321F098
:1019E00081E08093350708951092350720913907DB
:1019F00001C02150822F90E0FC01EE0FFF1FEE0F7F
:101A0000FF1FEE0FFF1FE80FF91FEB59F84F308152
:101A1000332379F3AC01440F551F440F551F440F76
:101A2000551F480F591FDF010180F281E02D028010
:101A3000F381E02D1296FC93EE9311974859584F7D
:101A4000E417F50729F442815381FD015283418354
:101A5000FC01EE0FFF1FEE0FFF1FEE0FFF1F8E0F9B
:101A60009F1FFC01EB59F84F0180F281E02D868128
:101A70009781909393078093920720933907089555
:101A80005058BB27AA270E94580D0C94A20E0E9402
:101A9000940E38F00E949B0E20F039F49F3F19F409
:101AA00026F40C94910E0EF4E095E7FB0C948B0E4B
:101AB000E92F0E94B30E58F3BA1762077307840721
:101AC000950720F079F4A6F50C94D50E0EF4E09568
:101AD0000B2EBA2FA02D0B01B90190010C01CA01E8
:101AE000A0011124FF27591B99F0593F50F4503E93
:101AF00068F11A16F040A22F232F342F4427585F85
:101B0000F3CF469537952795A795F0405395C9F79C
:101B10007EF41F16BA0B620B730B840BBAF0915054
:101B2000A1F0FF0FBB1F661F771F881FC2F70EC0F3
:101B3000BA0F621F731F841F48F4879577956795C6
:101B4000B795F7959E3F08F0B0CF9395880F08F0B2
:101B50009927EE0F9795879508950E94C10D0C94D3
:101B6000A20E0E949B0E58F00E94940E40F029F4A1
:101B70005F3F29F00C948B0E51110C94D60E0C94EF
:101B8000910E0E94B30E68F39923B1F3552391F39C
:101B9000951B550BBB27AA2762177307840738F0DC
:101BA0009F5F5F4F220F331F441FAA1FA9F335D039
:101BB0000E2E3AF0E0E832D091505040E695001CED
:101BC000CAF72BD0FE2F29D0660F771F881FBB1FA7
:101BD000261737074807AB07B0E809F0BB0B802D85
:101BE000BF01FF2793585F4F3AF09E3F510578F0B1
:101BF0000C948B0E0C94D60E5F3FE4F3983ED4F316
:101C0000869577956795B795F7959F5FC9F7880F84
:101C1000911D9695879597F90895E1E0660F771FD6
:101C2000881FBB1F621773078407BA0720F0621B67
:101C3000730B840BBA0BEE1F88F7E09508950E9492
:101C4000BB0E88F09F5798F0B92F9927B751B0F085
:101C5000E1F0660F771F881F991F1AF0BA95C9F730
:101C600014C0B13091F00E94D50EB1E008950C94EB
:101C7000D50E672F782F8827B85F39F0B93FCCF39E
:101C8000869577956795B395D9F73EF490958095AD
:101C9000709561957F4F8F4F9F4F0895E89409C0CD
:101CA00097FB3EF490958095709561957F4F8F4F8F
:101CB0009F4F9923A9F0F92F96E9BB279395F695A5
:101CC000879577956795B795F111F8CFFAF4BB0F23
:101CD00011F460FF1BC06F5F7F4F8F4F9F4F16C087
:101CE000882311F096E911C0772321F09EE8872F11
:101CF000762F05C0662371F096E8862F70E060E0CD
:101D00002AF09A95660F771F881FDAF7880F969545
:101D1000879597F9089597F99F6780E870E060E0EC
:101D200008959FEF80EC089500240A941616170674
:101D300018060906089500240A94121613061406BC
:101D400005060895092E0394000C11F4882352F01F
:101D5000BB0F40F4BF2B11F460FF04C06F5F7F4FD7
:101D60008F4F9F4F089557FD9058440F551F59F0BE
:101D70005F3F71F04795880F97FB991F61F09F3F78
:101D800079F087950895121613061406551FF2CFA1
:101D90004695F1DF08C0161617061806991FF1CFF1
:101DA00086957105610508940895E894BB27662718
:101DB0007727CB0197F9089516F00C9423100C9413
:101DC000910E68940C948B0E0E94BB0EA8F399237D
:101DD000C1F3AEF3DF93CF931F930F93FF92C92FFD
:101DE000DD2788232AF02197660F771F881FDAF7EF
:101DF00020E030E040E85FEB9FE3883920F0803E50
:101E000038F021968F770E94410DE4E5F0E004C0A0
:101E10000E94410DE1E8F0E00E9431108B01BE010B
:101E2000EC01FB2E6F5771097595771F880B990B85
:101E30000E94500E28E132E741E35FE30E943F0F2A
:101E4000AF2D9801AE01FF900F911F91CF91DF91BF
:101E50000E94580D0C94A20E0E943F0F0C94A20EEB
:101E60000E94940E38F00E949B0E20F0952311F0F2
:101E70000C948B0E0C94910E11240C94D60E0E948F
:101E8000B30E70F3959FC1F3950F50E0551F629FFD
:101E9000F001729FBB27F00DB11D639FAA27F00DC3
:101EA000B11DAA1F649F6627B00DA11D661F829FEA
:101EB0002227B00DA11D621F739FB00DA11D621FCF
:101EC000839FA00D611D221F749F3327A00D611DEC
:101ED000231F849F600D211D822F762F6A2F1124CE
:101EE0009F5750409AF0F1F088234AF0EE0FFF1F01
:101EF000BB1F661F771F881F91505040A9F79E3F58
:101F0000510580F00C948B0E0C94D60E5F3FE4F3D9
:101F1000983ED4F3869577956795B795F795E795AD
:101F20009F5FC1F7FE2B880F911D9695879597F9B6
:101F30000895FA01EE0FFF1F309621053105A1F13A
:101F40006115710561F48038BFE39B0749F168941E
:101F50009038810561F08038BFEF9B0741F09923ED
:101F60004AF5FF3FE1053105210519F1E894089490
:101F7000E795D901AA2329F4AB2FBE2FF85FD0F340
:101F800010C0FF5F70F4A695E0F7F73950F019F034
:101F9000FF3A38F49F779F930DD00F9007FC90582D
:101FA000089546F00C94910E60E070E080E89FE3A5
:101FB00008954FE79F775F934F933F932F930E942E
:101FC000E40E2F913F914F915F910E942C0F0C9442
:101FD000F10F29F416F00C948B0E0C94D50E0C9482
:101FE000910E0E94BB0EA8F39638A0F707F80F9247
:101FF000E8942BE33AEA48EB5FE70E94420F0F9226
:102000000F920F924DB75EB70F920E949A10EEEAB0
:10201000F0E00E9431104F915F91EF91FF91E595B3
:10202000EE1FFF1F49F0FE57E0684427EE0F441FE4
:10203000FA95E1F74195550B0E9464100F9007FE49
:102040000C94581008959F3F31F0915020F48795DB
:1020500077956795B795880F911D9695879597F910
:102060000895DF93CF931F930F93FF92EF92DF9228
:102070007B018C01689406C0DA2EEF010E943F0FAD
:10208000FE01E894A5912591359145915591A6F3CE
:10209000EF010E94580DFE019701A801DA9469F73B
:1020A000DF90EF90FF900F911F91CF91DF910895F6
:1020B0009B01AC0160E070E080E89FE30C94AD0D03
:1020C0000C948B0E0C9423100E94BB0ED8F3992312
:1020D000C9F3940F511DA3F39150504094F059F05F
:1020E000882332F0660F771F881F91505040C1F748
:1020F0009E3F51052CF7880F911D9695879597F96E
:1021000008955F3FACF0983E9CF0BB27869577958D
:102110006795B79508F4B1609395C1F7BB0F58F771
:1021200011F460FFE8CF6F5F7F4F8F4F9F4FE3CF7A
:102130000C94D60EFA01DC01AA0FBB1F9B01AC0167
:10214000BF5728F4222733274427507820C0B7519F
:1021500090F4AB2F0024469537952795011CA39545
:10216000D2F3002071F0220F331F441FB395DAF32E
:102170000ED00C94400D61307105A0E88A07B94675
:1021800030F49B01AC01662777278827907830963A
:1021900021F020833183428353830895A29FB001AD
:1021A000B39FC001A39F700D811D1124911DB29F8B
:1021B000700D811D1124911D0895EF920F931F93AF
:1021C000CF93DF93E80147FD02C034E001C034E162
:1021D000042E000C550B57FF03C051954195510932
:1021E000E32E022F242FAE010E943411CE01DF9185
:1021F000CF911F910F91EF900895DC0101C06D9375
:1022000041505040E0F708954532510520F44230E6
:1022100010F00C940F11FB011082CB010895BB2725
:102220004A3031F4992322F4BDE2909581959F4F75
:102230000C941B11BB27FB015527AA27880F991F58
:10224000AA1FA41710F0A41B83955051B9F7A05DE5
:10225000AA3308F0A95DA193009779F7B111B19362
:102260001192CB010C946613A9E0B0E0EAE3F1E12E
:102270000C947C136A01122FB02E2BE3201720F050
:10228000FF24F394F00E02C02CE3F22E0F2D27E072
:10229000AE014F5F5F4F0E948E12BC014981842FB7
:1022A0008970813031F0E1FC06C0E0FE06C090E2AA
:1022B00005C09DE203C09BE201C090E05E2D50711D
:1022C00043FF3CC0911102C083E001C084E081174C
:1022D00018F4212F281B01C020E051110BC0F6017A
:1022E000822F30E2882319F031938150FBCFC20E48
:1022F000D11C20E0992329F0D6019C93F601319658
:102300006F01C6010396E2FE0AC03EE4D6013C938B
:1023100041E411964C93119712963C9306C03EE609
:10232000F601308341E641833283FC01322F40E2E3
:10233000332309F442C041933150FACF42FF44C0E5
:10234000911102C083E001C084E0811718F4212FAD
:10235000281B01C020E051110BC0F601822F30E292
:10236000882319F031938150FBCFC20ED11C20E09D
:10237000992329F0D6019C93F60131966F01C6018D
:102380000396E2FE0BC039E4D6013C933EE411967D
:102390003C93119736E412963C9307C039E6F60158
:1023A00030833EE6318336E63283FC01322F40E251
:1023B000332319F041933150FBCFFC01E20FF11DA3
:1023C00010828EEF9FEFA6C021E030E0911102C095
:1023D00020E030E0161617061CF4FB01319602C00F
:1023E000E1E0F0E02E0F3F1FBB2021F0EB2DF0E0ED
:1023F000319602C0E0E0F0E02E0F3F1FE12FF0E049
:102400002E173F071CF4121B212F01C020E08E2D38
:10241000887159F4F601822F30E2882319F0319344
:102420008150FBCFC20ED11C20E0992329F0D601A8
:102430009C93F60131966F0151110BC0F601822F6A
:1024400090E3882319F091938150FBCFC20ED11CE9
:1024500020E00F2D060F9A81342F307144FF03C006
:10246000913309F40150101624F4093018F008E0F3
:1024700001C001E0AB0177FF02C040E050E0FB018A
:10248000E41BF50BA1E0B0E0AC0FBD1FEA0FFB1F92
:102490008EE2A82E4B01801A91080B2D10E01195A9
:1024A000019511094F3FBFEF5B0721F4D601AC92B4
:1024B00011966D01641775072CF08416950614F4B7
:1024C000818101C080E3415051093196D6011196B6
:1024D0007D014017510724F0D6018C936701E2CFAC
:1024E0006417750739F4963320F4953319F43111D4
:1024F00001C081E3F6018083F701822F90E28823F7
:1025000019F091938150FBCFF701E20FF11D10827A
:1025100080E090E02996ECE00C949813283008F0C5
:1025200027E03327DA01990F311D87FD916000966E
:102530006105710539F432602E5F3D9330E32A95D1
:10254000E1F708959F3F30F080387105610509F08B
:102550003C5F3C5F3D93913008F08068911DDF93B4
:10256000CF931F930F93FF92EF92192F987F969519
:10257000E92F96959695E90FFF27E05DFE4F992785
:102580003327EE24FF24A701E70105900894079460
:1025900028F4360FE71EF81E491F511D660F771FDE
:1025A000881F991F0694A1F70590079428F4E70E59
:1025B000F81E491F561FC11D770F881F991F661FE0
:1025C0000694A1F70590079428F4F80E491F561FAA
:1025D000C71FD11D880F991F661F771F0694A1F78B
:1025E0000590079420F4490F561FC71FD81F990F55
:1025F000661F771F881F0694A9F78491109517709E
:1026000041F0D695C79557954795F794E7941A9555
:10261000C1F7E6EDF0E0689415901591359165915C
:10262000959105907FE27395E118F10A430B560BE3
:10263000C90BD009C0F7E10CF11E431F561FC91F7B
:10264000D01D7EF4703311F48A95E6CFE8940150E2
:1026500030F0080F0AF40027021708F4202F239502
:10266000022F7A3328F079E37D932A95E9F710C099
:102670007D932A9589F606949795679537951795D2
:102680001794E118F10A430B560BC90BD00998F0C7
:1026900023957E9173957A3308F070E37C93201331
:1026A000B8F77E9170617D9330F0839571E37D93EF
:1026B00070E32A95E1F71124EF90FF900F911F919D
:1026C000CF91DF91992787FD90950895DC01FC015A
:1026D000672F71917723E1F7329704C07C916D9356
:1026E00070836291AE17BF07C8F308952F923F928F
:1026F0004F925F926F927F928F929F92AF92BF9212
:10270000CF92DF92EF92FF920F931F93CF93DF93BD
:10271000CDB7DEB7CA1BDB0B0FB6F894DEBF0FBE1A
:10272000CDBF09942A88398848885F846E847D8467
:102730008C849B84AA84B984C884DF80EE80FD8069
:102740000C811B81AA81B981CE0FD11D0FB6F894DF
:0E275000DEBF0FBECDBFED010895F894FFCFA0
:10275E003333134014AE073FF628DCBE3333134039
:10276E00CDCC4C3E1F85EBBE044C63645F5461734D
:10277E006B0054656D705F5461736B004D6F746FB9
:10278E00725F4C45445F5461736B004761735F54D5
:10279E0061736B0046414E206973204F46460046DA
:1027AE00414E206973204F4E2028434C4B29200068
:1027BE0046414E206973204F4E202841434C4B29F1
:1027CE00200054656D70203D2020202043004C5089
:1027DE00473A20202020202020202070706D0053AA
:1027EE004D4F4B453A2020202020202070706D0048
:0627FE0049444C450000B7
:00000001FF
