S010000054315F52544F4F532E7372656399
S11300000C942A000C9447000C9447000C9447006D
S11300100C9447000C9447000C9447000C94020580
S11300200C9447000C9447000C9447000C94470030
S11300300C9447000C9447000C9447000C94470020
S11300400C9447000C9447000C9447000C94470010
S11300500C94470011241FBECFE5D8E0DEBFCDBF0E
S113006010E0A0E6B0E0EEE3F9E102C005900D92E5
S1130070AA3AB107D9F727E0AAEAB0E001C01D9275
S1130080AD30B207E1F70E943B030C949D0C0C9435
S11300900000FC0117B887B1908140E4949F90015F
S11300A01124282B27B980E886B996B18181892B40
S11300B086B90895877097B1907E97B997B1892BC7
S11300C087B986B1806486B9349BFECF86B18061DE
S11300D086B984B195B1089541E060E081E00E9461
S11300E0B30041E061E081E00E94B30040E060E0E1
S11300F081E00E94260140E061E081E00E94260147
S11301000895CF93C62F813069F440E060E00E94E7
S1130110260141E061E081E00E9426018C2F0E94CB
S11301208B031FC0823071F441E060E081E00E94E3
S1130130260140E061E081E00E9426018C2F0E94AC
S11301408B030FC081110DC040E060E081E00E948C
S1130150260140E061E081E00E9426018C2F0E948C
S11301608B03CF910895683008F06FC0843008F095
S11301706CC0813001F130F08230B1F1833009F488
S11301804CC00895413059F42AB381E090E002C094
S1130190880F991F6A95E2F7822B8ABB08952AB3C8
S11301A081E090E002C0880F991F6A95E2F780957C
S11301B082238ABB0895413059F427B381E090E04B
S11301C002C0880F991F6A95E2F7822B87BB0895B6
S11301D027B381E090E002C0880F991F6A95E2F787
S11301E08095822387BB0895413059F424B381E07C
S11301F090E002C0880F991F6A95E2F7822B84BBB6
S1130200089524B381E090E002C0880F991F6A9595
S1130210E2F78095822384BB0895413059F421B3D9
S113022081E090E002C0880F991F6A95E2F7822B63
S113023081BB089521B381E090E002C0880F991F2B
S11302406A95E2F78095822381BB0895683008F0AF
S11302506FC0843008F06CC0813001F130F082301E
S1130260B1F1833009F44CC00895413059F42BB3F3
S113027081E090E002C0880F991F6A95E2F7822B13
S11302808BBB08952BB381E090E002C0880F991FC7
S11302906A95E2F7809582238BBB0895413059F427
S11302A028B381E090E002C0880F991F6A95E2F7B5
S11302B0822B88BB089528B381E090E002C0880FA8
S11302C0991F6A95E2F78095822388BB089541308F
S11302D059F425B381E090E002C0880F991F6A9514
S11302E0E2F7822B85BB089525B381E090E002C03C
S11302F0880F991F6A95E2F78095822385BB08953C
S1130300413059F422B381E090E002C0880F991F74
S11303106A95E2F7822B82BB089522B381E090E0D4
S113032002C0880F991F6A95E2F78095822382BBE9
S11303300895843078F4813041F028F0823039F027
S1130340833039F008956ABB089567BB089564BB90
S1130350089561BB0895843078F4813041F028F029
S1130360823039F0833039F008956BBB089568BB4F
S1130370089565BB089562BB0895CF93C82F40E0EC
S113038067E081E00E94260189EF90E00197F1F790
S113039000C0000041E066E081E00E94260189EF90
S11303A090E00197F1F700C000006C2F83E00E94F9
S11303B0AB0189EF90E00197F1F700C0000040E045
S11303C066E081E00E94260189EF90E00197F1F751
S11303D000C00000CF91089541E067E081E00E94F1
S11303E0B30041E066E081E00E94B30087E893E156
S11303F00197F1F700C000006FEF83E00E949901BC
S113040088E30E94BD018CE00E94BD0181E00E944E
S1130410BD010895CF93C82F41E067E081E00E94B9
S1130420260189EF90E00197F1F700C0000041E058
S113043066E081E00E94260189EF90E00197F1F7E0
S113044000C000006C2F83E00E94AB0189EF90E0B4
S11304500197F1F700C0000040E066E081E00E94EF
S1130460260189EF90E00197F1F700C00000CF91D9
S113047008950F931F93CF938C01C0E003C00E9493
S11304800A02CF5FF801EC0FF11D80818111F7CFD3
S1130490CF911F910F910895813031F070F0823027
S11304A031F0833039F00AC090E4960F07C090E130
S11304B0960F04C090E5960F01C0962F892F80688F
S11304C00E94BD010895CF93DF93CDB7DEB7609747
S11304D00FB6F894DEBF0FBECDBF4AE050E0BE01B8
S11304E06F5F7F4F0E945D0CCE0101960E9439021E
S11304F060960FB6F894DEBF0FBECDBFDF91CF91EB
S1130500089582E00E945A009C01A6E9B0E00E948E
S1130510470C0E944C0B2AE037ED43E250E40E9462
S1130520DA0B20E030ED4FEB54E40E94AB0A0E945A
S11305301D0B862F08950E9403099093B7008093A2
S1130540B6008091AA00811108C060E00E944C02AC
S113055081E690E00E94390208C060E080E00E94D9
S11305604C028CE690E00E94390260E081E00E9437
S11305704C0287E790E00E94390267E081E00E9424
S11305804C028091AB00843620F090E00E9463021C
S113059006C090E00E94630280E20E940A020E9468
S11305A003099093B5008093B4002091B600309174
S11305B0B700821B930B9093BD008093BC0081E233
S11305C090E00E94410AB7CF0E9403099093B300C0
S11305D08093B2001092AB000E9481028093AB0022
S11305E00E9403099093B1008093B0002091B2005F
S11305F03091B300821B930B9093BB008093BA009D
S113060080E190E00E94410ADFCF0E9403099093A9
S1130610AF008093AE008091AB008E3138F081E062
S11306208093AA0062E30E94810010C0853140F4E7
S113063081E08093AA0062E382E00E94810006C008
S11306401092AA0060E080E00E9481000E940309E9
S11306509093AD008093AC002091AE003091AF0038
S1130660821B930B9093B9008093B80082E390E0CF
S11306700E94410ACACFEF92FF920F93CF93DF9368
S113068000D0CDB7DEB783E089838A830E94EC0172
S11306900E946C00CE0101960E9449000F2EFBE0DF
S11306A0EF2EF7E0FF2EF02D01E020E030E044E6ED
S11306B050E063E870E08BE992E00E947D080F2E21
S11306C0F7E0EF2EF7E0FF2EF02D03E020E030E01E
S11306D044E650E06CE870E084EE92E00E947D080D
S11306E00F2EF9E0EF2EF7E0FF2EF02D02E020E0D0
S11306F030E044E650E066E970E085E093E00E9473
S11307007D080E94D1080F900F90DF91CF910F9137
S1130710FF90EF90089512BE682F70E080E090E0A3
S11307200E944C0B20E030E048EC52E40E94AB0AFB
S113073020E030E04FE753E40E94DA0B0E941D0BE7
S11307406CBF8AE683BF41E063E081E00E94B300AE
S113075008951BBC8DE48ABD8BE08EBD89B7806192
S113076089BF089531E1FC013083319722E220836F
S11307703197A3E3A08331976083319770833197D6
S11307801082319760E8608331971082319762E07C
S11307906083319763E06083319764E060833197CD
S11307A065E06083319766E06083319767E060833A
S11307B0319768E06083319769E06083319760E145
S11307C0608331973083319732E13083319733E15D
S11307D03083319734E13083319735E13083319779
S11307E036E13083319737E13083319738E1308314
S11307F0319739E13083319730E23083319731E2F8
S1130800308331972083319723E2208331974083CB
S113081031975083319726E22083319727E2208352
S1130820319728E22083319729E22083319720E30E
S11308302083319721E32083869708950E94A9039A
S1130840A0910507B0910607CD91CDBFDD91DEBF24
S1130850FF91EF91DF91CF91BF91AF919F918F91D4
S11308607F916F915F914F913F912F911F910F91C4
S1130870FF90EF90DF90CF90BF90AF909F908F90BC
S11308807F906F905F904F903F902F901F900F90AC
S11308900FBE0F90089581E008950F920FB6F8945B
S11308A00F921F9211242F923F924F925F926F9258
S11308B07F928F929F92AF92BF92CF92DF92EF92EC
S11308C0FF920F931F932F933F934F935F936F93D5
S11308D07F938F939F93AF93BF93CF93DF93EF93C4
S11308E0FF93A0910507B09106070DB60D920EB6C1
S11308F00D920E94570AA0910507B0910607CD9169
S1130900CDBFDD91DEBFFF91EF91DF91CF91BF911C
S1130910AF919F918F917F916F915F914F913F9193
S11309202F911F910F91FF90EF90DF90CF90BF9088
S1130930AF909F908F907F906F905F904F903F907B
S11309402F901F900F900FBE0F9008950F920FB627
S1130950F8940F921F9211242F923F924F925F921C
S11309606F927F928F929F92AF92BF92CF92DF92BB
S1130970EF92FF920F931F932F933F934F935F93A5
S11309806F937F938F939F93AF93BF93CF93DF9393
S1130990EF93FF93A0910507B09106070DB60D9252
S11309A00EB60D920E940D0981110E94570AA09162
S11309B00507B0910607CD91CDBFDD91DEBFFF9154
S11309C0EF91DF91CF91BF91AF919F918F917F91E3
S11309D06F915F914F913F912F911F910F91FF90D4
S11309E0EF90DF90CF90BF90AF909F908F907F90CB
S11309F06F905F904F903F902F901F900F900FBE7D
S1130A000F9008950E94A6041895FC010396928302
S1130A1081832FEF3FEF34832383968385839087ED
S1130A20878310820895FC01118610860895CF9360
S1130A30DF939C01FB01DC011196CD91DC911297AF
S1130A40D383C2838C819D81958384838C819D8192
S1130A50DC0113967C936E9312977D836C833187AC
S1130A602087F90180818F5F8083DF91CF91089582
S1130A70CF93DF93EB01488159814F3F2FEF52070A
S1130A8021F4FC01A781B0850DC0DC01139601C0DF
S1130A90DF011296ED91FC91139720813181421769
S1130AA05307B0F71296ED91FC911397FB83EA83F9
S1130AB0D583C483BD83AC831396DC93CE93129702
S1130AC099878887FC0120812F5F2083DF91CF9154
S1130AD00895CF93DF93FC01A085B185C281D381B2
S1130AE0848195819D838C83C481D5818281938106
S1130AF09B838A8311968D919C911297E817F9072D
S1130B0031F48481958112969C938E93119711866A
S1130B1010868C9181508C938C91DF91CF910895A4
S1130B20EAECF0E0AEECB0E0B183A0831382128271
S1130B30E6EAF6E0F093C900E093C800138212825B
S1130B401182108288ED95E013969C938E931297F0
S1130B50ED93FC939093C5008093C4009093C700D9
S1130B608093C60080E090E89093BF008093BE001D
S1130B700895CF93DF93EC01AAECB0E001C0DF014C
S1130B80ED91FC911197EC17FD07C8F312968D9126
S1130B909C9113979D01280F391FC217D30749F45D
S1130BA02A813B81820F931F13969C938E931297F5
S1130BB0ED018A819B819E01280F391FE217F307FB
S1130BC0C1F42091C8003091C900E217F30771F015
S1130BD022813381820F931F9B838A83ED91FC9141
S1130BE01197808191819983888305C039832883F3
S1130BF002C0F983E883CA17DB0711F0CD93DC93B5
S1130C00DF91CF910895EF92FF920F931F93CF93AB
S1130C10DF938C010E94FD088091C8009091C90067
S1130C20892B11F40E9490058091BE009091BF0021
S1130C3080239123892B09F077C00115110549F010
S1130C40C80104960817190718F000E010E001C065
S1130C508C010115110509F46AC08091C6009091B8
S1130C60C7008017910708F465C0C091CA00D091ED
S1130C70CB00EAECF0E002C0FE01EC018A819B812A
S1130C808017910720F4888199810097A9F78091B2
S1130C90C8009091C900C817D90709F44EC0E08074
S1130CA0F18084E0E80EF11C88819981918380832E
S1130CB02A813B81201B310B2930310550F0CE01B4
S1130CC0800F911FFC01338322831B830A830E94BC
S1130CD0B9052A813B818091C6009091C700821B8F
S1130CE0930B9093C7008093C6004091C400509129
S1130CF0C5008417950720F49093C5008093C40021
S1130D008091BE009091BF00282B392B3B832A830E
S1130D10198218828091C2009091C3000196909329
S1130D20C3008093C2000BC0E12CF12C08C0E12C5D
S1130D30F12C05C0E12CF12C02C0E12CF12C0E9415
S1130D40CB09C701DF91CF911F910F91FF90EF90D5
S1130D5008950F931F93CF93DF93009799F1EC01BC
S1130D6024974A815B812091BE003091BF00BA0173
S1130D7062237323672B31F168817981672B11F525
S1130D8020953095242335233B832A830E94FD0834
S1130D908A819B812091C6003091C700820F931FE6
S1130DA09093C7008093C600CE010E94B90580913C
S1130DB0C0009091C10001969093C1008093C0003F
S1130DC00E94CB09DF91CF911F910F910895E0917B
S1130DD0CD06F091CE068081811107C08FEF9FEF81
S1130DE09093AE068093AD060895E091CD06F09100
S1130DF0CE060580F681E02D808191819093AE0628
S1130E008093AD0608952F923F924F925F926F9216
S1130E107F928F929F92AF92BF92CF92DF92EF9286
S1130E200F931F93CF93DF93CDB7DEB71C014B0114
S1130E3029013A01A90165EA70E0D50157968D911F
S1130E409C9158970E94560CF5018789908DF1E08A
S1130E504F1A5108480E591E8114910489F417C081
S1130E60822F90E0F401E80FF91F3081D501A80F1B
S1130E70B91F59963C938081882329F02F5F01C0C4
S1130E8020E02C3068F3D50194961C9202C0F50141
S1130E90118EF3E0FE1520F40F2EF3E0EF2EF02D6B
S1130EA0D5015696EC92C50102960E941305C50120
S1130EB00C960E941305F501B186A08684E090E0AB
S1130EC08E19910995878487B38AA28A84E0B7969C
S1130ED0DF011D928A95E9F7F50113A6A801B10176
S1130EE0C2010E94B203D5018D939C93C114D10415
S1130EF019F0F601B182A082DF91CF911F910F9179
S1130F00EF90DF90CF90BF90AF909F908F907F90A5
S1130F106F905F904F903F902F9008958091E106DD
S1130F208230E0F30E944D04F9CFCF93C0E010C0AB
S1130F308C2F90E09C01220F331F220F331F220FAE
S1130F40331F820F931F8F51994F0E940505CF5F66
S1130F50C43070F388ED96E00E9405058FEC96E0AE
S1130F600E94050582EC96E00E94050589EB96E057
S1130F700E94050588ED96E09093CE068093CD06F9
S1130F808FEC96E09093CC068093CB06CF91089596
S1130F90CF93DF93EC010FB6F8940F928091B806CB
S1130FA08F5F8093B8068091050790910607892B7F
S1130FB059F4D0930607C09305078091B806813091
S1130FC099F40E94950710C08091B40681110CC059
S1130FD0E0910507F091060796898E89891720F01C
S1130FE0D0930607C09305078091AF068F5F809367
S1130FF0AF068DA38E899091B506981710F480934F
S1131000B50690E09C01220F331F220F331F220FDD
S1131010331F820F931FBE016E5F7F4F8F51994F15
S11310200E9417050F900FBE8091B406882351F0DB
S1131030E0910507F091060796898E89981710F4B8
S11310400E944D04DF91CF910895FF920F931F9357
S1131050CF93DF93EC01F62E0091B6061091B706FC
S1131060809105079091060702960E946905CF3F7B
S11310708FEFD80769F4FF2059F06091050770914C
S113108006076E5F7F4F89EB96E00E9417052FC01D
S1131090C00FD11FE0910507F0910607D383C283E7
S11310A0C017D10768F46091050770910607809115
S11310B0CB069091CC066E5F7F4F0E94380517C017
S11310C060910507709106078091CD069091CE0638
S11310D06E5F7F4F0E9438058091AD069091AE06F9
S11310E0C817D90720F4D093AE06C093AD06DF919C
S11310F0CF911F910F91FF9008952F923F924F929D
S11311005F926F927F928F929F92AF92BF92CF9293
S1131110DF92EF92FF920F931F93CF93DF933C01E3
S11311201B015A012901CA010E9403066C01892B83
S113113071F08CE290E00E940306EC01892B19F017
S1131140D88ECF8A06C0C6010E94A90602C0C0E09C
S1131150D0E0209791F0950140E050E0812C912C53
S11311605E016701E02E8201B101C3010E94030701
S1131170CE010E94C80781E001C08FEFDF91CF91BB
S11311801F910F91FF90EF90DF90CF90BF90AF90A1
S11311909F908F907F906F905F904F903F902F9093
S11311A00895EF92FF920F930F2EFBEAEF2EF6E0D5
S11311B0FF2EF02D00E020E030E045E550E065EA48
S11311C070E08EE897E00E947D08813081F4F89405
S11311D08FEF9FEF9093AE068093AD0681E08093EE
S11311E0B4061092B7061092B6060E941E048091AF
S11311F060000F91FF90EF9008958091AA068F5F91
S11312008093AA0608950FB6F8940F928091B606BB
S11312109091B7060F900FBE0895DF92EF92FF9260
S11312200F931F93CF93DF938091AA0681119DC0E2
S1131230E090B606F090B7068FEFE81AF80AF0923D
S1131240B706E092B606E114F104B9F48091CD0634
S11312509091CE062091CB063091CC063093CE06E9
S11312602093CD069093CC068093CB068091B00654
S11312708F5F8093B0060E94E7068091AD0690913F
S1131280AE06E816F90628F4D12C53C0DD24D39415
S113129001C0D12CE091CD06F091CE068081811160
S11312A007C08FEF9FEF9093AE068093AD0641C0C9
S11312B0E091CD06F091CE060580F681E02DC68141
S11312C0D7818A819B81E816F90628F49093AE06AB
S11312D08093AD062EC08E010E5F1F4FC8010E9481
S11312E069058C899D89892B21F0CE010C960E9479
S11312F069058E899091B506981710F48093B50608
S113130090E09C01220F331F220F331F220F331F43
S1131310820F931FB8018F51994F0E9417059E8920
S1131320E0910507F09106078689981708F0AECF7B
S1131330B1CFE0910507F0910607868990E0FC01A2
S1131340EE0FFF1FEE0FFF1FEE0FFF1F8E0F9F1FED
S1131350FC01EF51F94F8081823010F0DD24D394E9
S11313608091B10681110CC00DC08091B20690919C
S1131370B30601969093B3068093B206D12C02C0B3
S1131380DD24D3948D2DDF91CF911F910F91FF9088
S1131390EF90DF9008950F931F93CF93DF930FB6D1
S11313A0F8940F928091AA0681508093AA068091A6
S11313B0AA0681115CC08091B806811133C05AC05D
S11313C0E091C706F091C806C681D781CE010C967C
S11313D00E9469058E010E5F1F4FC8010E946905B6
S11313E08E899091B506981710F48093B50690E015
S11313F09C01220F331F220F331F220F331F820F32
S1131400931FB8018F51994F0E9417059E89E0914F
S11314100507F09106078689981730F081E08093DC
S1131420B10602C0C0E0D0E08091C2068111C8CFED
S1131430CD2B11F00E94E706C091B206D091B306FD
S1131440209769F00E940D09882319F081E08093A8
S1131450B1062197B9F71092B3061092B2068091A3
S1131460B106882331F00E944D0481E003C080E07E
S113147001C080E00F900FBEDF91CF911F910F91BB
S11314800895CF93DF93EC01892B49F00E94FD0866
S113149060E0CE010E9425080E94CB0901C080E0D3
S11314A0811102C00E944D04DF91CF910895809173
S11314B0AA06882321F081E08093B1060895109252
S11314C0B1062091B50601C02150822F90E0FC01A5
S11314D0EE0FFF1FEE0FFF1FEE0FFF1FE80FF91FA8
S11314E0EF51F94F3081332379F3AC01440F551F89
S11314F0440F551F440F551F480F591FDF0101802A
S1131500F281E02D0280F381E02D1296FC93EE939C
S113151011974C51594FE417F50729F4428153812F
S1131520FD0152834183FC01EE0FFF1FEE0FFF1FED
S1131530EE0FFF1F8E0F9F1FFC01EF51F94F01802B
S1131540F281E02D868197819093060780930507A9
S11315502093B50608950E94BF0A0C94A00B0E9424
S1131560990B58F00E94920B40F029F45F3F29F048
S11315700C94890B51110C94D40B0C948F0B0E9476
S1131580B10B68F39923B1F3552391F3951B550BD4
S1131590BB27AA2762177307840738F09F5F5F4F42
S11315A0220F331F441FAA1FA9F335D00E2E3AF081
S11315B0E0E832D091505040E695001CCAF72BD099
S11315C0FE2F29D0660F771F881FBB1F26173707EA
S11315D04807AB07B0E809F0BB0B802DBF01FF271C
S11315E093585F4F3AF09E3F510578F00C94890B65
S11315F00C94D40B5F3FE4F3983ED4F3869577952F
S11316006795B795F7959F5FC9F7880F911D9695D4
S1131610879597F90895E1E0660F771F881FBB1F30
S1131620621773078407BA0720F0621B730B840BDD
S1131630BA0BEE1F88F7E09508950E94B90B88F065
S11316409F5798F0B92F9927B751B0F0E1F0660F82
S1131650771F881F991F1AF0BA95C9F714C0B130C3
S113166091F00E94D30BB1E008950C94D30B672F33
S1131670782F8827B85F39F0B93FCCF386957795F2
S11316806795B395D9F73EF49095809570956195DB
S11316907F4F8F4F9F4F0895E89409C097FB3EF406
S11316A090958095709561957F4F8F4F9F4F9923AB
S11316B0A9F0F92F96E9BB279395F6958795779529
S11316C06795B795F111F8CFFAF4BB0F11F460FFE9
S11316D01BC06F5F7F4F8F4F9F4F16C0882311F041
S11316E096E911C0772321F09EE8872F762F05C055
S11316F0662371F096E8862F70E060E02AF09A95F0
S1131700660F771F881FDAF7880F9695879597F9E4
S1131710089597F99F6780E870E060E008959FEF6F
S113172080EC089500240A94161617061806090674
S1131730089500240A941216130614060506089543
S1131740092E0394000C11F4882352F0BB0F40F4CB
S1131750BF2B11F460FF04C06F5F7F4F8F4F9F4F0B
S1131760089557FD9058440F551F59F05F3F71F08D
S11317704795880F97FB991F61F09F3F79F08795F4
S11317800895121613061406551FF2CF4695F1DF7D
S113179008C0161617061806991FF1CF869571050D
S11317A0610508940895E894BB2766277727CB0141
S11317B097F908950E94ED0B0C94A00B0E94920BD4
S11317C038F00E94990B20F0952311F00C94890BAA
S11317D00C948F0B11240C94D40B0E94B10B70F356
S11317E0959FC1F3950F50E0551F629FF001729FC2
S11317F0BB27F00DB11D639FAA27F00DB11DAA1FD1
S1131800649F6627B00DA11D661F829F2227B00D1D
S1131810A11D621F739FB00DA11D621F839FA00DA8
S1131820611D221F749F3327A00D611D231F849FF8
S1131830600D211D822F762F6A2F11249F5750404F
S11318409AF0F1F088234AF0EE0FFF1FBB1F661FCA
S1131850771F881F91505040A9F79E3F510580F093
S11318600C94890B0C94D40B5F3FE4F3983ED4F3AF
S1131870869577956795B795F795E7959F5FC1F737
S1131880FE2B880F911D9695879597F90895A29F31
S1131890B001B39FC001A39F700D811D1124911D40
S11318A0B29F700D811D1124911D0895DC0101C0AA
S11318B06D9341505040E0F708954532510520F4AE
S11318C0423010F00C94680CFB011082CB01089597
S11318D0BB274A3031F4992322F4BDE290958195D7
S11318E09F4F0C94740CBB27FB015527AA27880F24
S11318F0991FAA1FA41710F0A41B83955051B9F780
S1131900A05DAA3308F0A95DA193009779F7B111FE
S1131910B1931192CB010C948D0CDC01FC01672F67
S113192071917723E1F7329704C07C916D937083B2
S11119306291AE17BF07C8F30895F894FFCF75
S113193E0346414E206973204F46460046414E20D1
S113194E6973204F4E200054656D70203D20202079
S113195E2043004C63645F5461736B0054656D7077
S113196E5F5461736B004D6F746F725F4C45445FCF
S10D197E5461736B0049444C4500AA
S9030000FC
